:02000000622F6D
:1000080070082000A8007108A7007208A6007308ED
:10001800A5007408A4007508A3007608A200803122
:10002800111C1A281110B10A0319B20A121C362819
:1000380025001A1C362821001210931220001810CF
:10004800043025009A00C2257008D1007108D2003A
:100058007208D3007308D400121018142100121467
:10006800931660282000121C602821001210931299
:1000780020001810053025009A00C2257008C50018
:100088007108C6007208C7007308C8005108C50285
:100098005208C63B5308C73B5408C83BC2257008E2
:1000A800BD007108BE007208BF007308C0001814B4
:1000B80012102100121493162000931E7D2826008A
:1000C8001A1C7D28210012109312200018100430E9
:1000D80026009A00C2257008B3007108B40072089F
:1000E800B5007308B6009312181421001214931661
:1000F800A7282000931EA728210012109312200081
:100108001810053026009A00C2257008C900710829
:10011800CA007208CB007308CC003308C90234083F
:10012800CA3B3508CB3B3608CC3BC2257008B90022
:100138007108BA007208BB007308BC001814931247
:1001480021001214931620002808F0002708F10057
:100158002608F2002508F3002408F4002308F50017
:060168002208F600090068
:0E016E00F201F101F001F801F3010030080088
:10017C00FB09FA09F909F809F80A0319F90A03192C
:08018C00FA0A0319FB0A08003E
:08019400FA1FF213003008000D
:10019C007408F8027508031C750FF9027608031C25
:1001AC00760FFA027708031C770FFB02F30D07306A
:1001BC00FC00730DF80DF90DFA0DFB0D7408731C92
:1001CC00F528F8027508031C750FF9027608031C54
:1001DC00760FFA027708031C770FFB020229F80747
:1001EC0075080318750FF90776080318760FFA07C8
:1001FC0077080318770FFB07F30DFC0BDF28720D44
:10020C00F80DF90DFA0DFB0D7408731C1B29F8027F
:10021C007508031C750FF9027608031C760FFA0299
:10022C007708031C770FFB022829F80775080318B9
:10023C00750FF90776080318760FFA077708031875
:10024C00770FFB07F20D0730FC00720DF80DF90D5E
:10025C00FA0DFB0D7408721C4129F8027508031C79
:10026C00750FF9027608031C760FFA027708031C47
:10027C00770FFB024E29F80775080318750FF9075D
:10028C0076080318760FFA0777080318770FFB0721
:10029C00F20DFC0B2B29710DF80DF90DFA0DFB0D60
:1002AC007408721C6729F8027508031C750FF90293
:1002BC007608031C760FFA027708031C770FFB02F3
:1002CC007429F80775080318750FF90776080318D1
:1002DC00760FFA0777080318770FFB07F10D073035
:1002EC00FC00710DF80DF90DFA0DFB0D7408711C65
:1002FC008D29F8027508031C750FF9027608031C8A
:10030C00760FFA027708031C770FFB029A29F8077D
:10031C0075080318750FF90776080318760FFA0796
:10032C0077080318770FFB07F10DFC0B7729700D7D
:10033C00F80DF90DFA0DFB0D7408711CB329F802B8
:10034C007508031C750FF9027608031C760FFA0268
:10035C007708031C770FFB02C029F80775080318F0
:10036C00750FF90776080318760FFA077708031844
:10037C00770FFB07F00D0730FC00700DF80DF90D31
:10038C00FA0DFB0D7408701CD929F8027508031CB2
:10039C00750FF9027608031C760FFA027708031C16
:1003AC00770FFB02E629F80775080318750FF90794
:1003BC0076080318760FFA0777080318770FFB07F0
:1003CC00F00DFC0BC3297018F9297408F80775088F
:1003DC000318750FF90776080318760FFA077708D4
:0803EC000318770FFB0708005E
:1003F4007B15FB1F042A0130F300F201F101F00127
:08040400FA0DF20CFF300800B4
:10040C0020002230FC00F801F901FA01FB01FC0389
:10041C0003193B2A0310FB0CFA0CF90CF80CF30C27
:10042C00F20CF10CF00C031C0D2AFC0303192D2A01
:10043C007408F80775080318750FF9077608031880
:10044C00760FFA0777080318770FFB07112A740841
:10045C00F80775080318750FF90776080318760F57
:0C046C00FA0777080318770FFB07080059
:1004780020006908230091009201951315131514A3
:060488001308F00008005B
:10048E002000F801F9011030FC00710DF80DF90D86
:10049E007408F8027508031C750FF90203185E2A1A
:1004AE007408F80775080318750FF9070310F00D97
:0804BE00F10DFC0B4C2A0800B3
:1004C6007408003A031D7C2A7508003A031D7C2A2D
:1004D6007608003A031D7C2A7708003A031D7C2A19
:1004E600FF30F000FF30F100FF30F2007F30F30004
:1004F600142B2000FC01F71BFC0AFD01FB01FA018D
:10050600F901F801730872047104700403190F2BC2
:1005160073087706A000A01BFD09F71F9D2AF409A2
:10052600F509F609F709F40A0319F50A0319F60A93
:100536000319F70AF31FAA2AF009F109F209F309C8
:10054600F00A0319F10A0319F20A0319F30A7308E8
:100556007704A000A01BCB2ACE20FC1BE82AFD1F97
:100566000F2BF009F109F209F309F00A0319F10A50
:100576000319F20A0319F30AF809F909FA09FB093A
:10058600F80A0319F90A0319FA0A0319FB0A0F2BC9
:10059600F71FE22AF31BDC2A7308FB007208FA0035
:1005A6007108F9007008F800F301F201F101F00199
:1005B600B22AF301F201F101F001F00A0034F30965
:1005C600F209F109F009FC17AF2AF80A0319F90A2A
:1005D6000319FA0A0319FB0A74087802031DB22AE2
:1005E60075087902031DB22A76087A02031DB22A1B
:1005F60077087B02031DB22AFB01FA01F901F80113
:10060600F00A0319F10A0319F20A0319F30AF31F90
:10061600B22AA0012016FF34A0017C1C132BBE2099
:04062600003E08008A
:06062A00FB15FF30080083
:10063000FB14FB1F222BFF30F300F200F100F0004F
:08064000FA0DF20CFF30080076
:0C0648000E30FD00FD0B262B000008000A
:10065400A1017208031D3F2B7108F2007008F1001C
:10066400F001A1157208031D3F2B7108F200F1017E
:10067400A1112116720803194D2B2108F302031D41
:10068400031C512B0310F21B552BF00DF10DF20D31
:10069400F30B452B512B0130FC00B720582B0230B3
:0E06A400FC00FA21582B0430FC00CA2008008C
:1006B20021002008F4002108F5002208F600230892
:1006C200F7002408F4022508F53B2608F63B270824
:1006D200F73B3008F0003108F1003208F20033082D
:1006E200F3002C08F0022D08F13B2E08F23B2F08F4
:1006F200F33B062221002808F4002908F5002A0805
:10070200F6002B08F7002408F4022508F53B26081A
:10071200F63B2708F73B632221002C08F0072D083F
:0C072200F13D2E08F23D2F08F33D0800C9
:10072E00833021009D0520006508F000F035F0357E
:10073E00700821009D0424239D149D1CA72BA42B1F
:10074E001C08F100F0011B08F0040030F104080051
:10075E00FA30F400F50120006508F0006608F1009B
:10076E0047227008E5007108E600E701E801660817
:10077E006802031DC42B650867020318E42B8D174E
:10078E000330FB000830FC007730FD00FD0BCD2B55
:10079E00FC0BCD2BFB0BCD2B8D130330FB00083048
:1007AE00FC007730FD00FD0BDA2BFC0BDA2BFB0B7C
:0C07BE00DA2BE70A0319E80ABE2B08003A
:1007CA002000E9013C2270082000B8000130E9004D
:1007DA003C2270082000B7007008B000AF0138084A
:1007EA00AF040030B0040230E9003C227008200057
:1007FA00B8000330E9003C2270082000B7007008F6
:10080A00AC00AB013808AB040030AC040430E9009A
:10081A003C2270082000B8000530E9003C2270082C
:10082A002000B7007008AA00A9013808A9040030FE
:10083A00AA040630E9003C2270082000B8000730FC
:10084A00E9003C2270082000B7007008AE00AD0134
:0A085A003808AD040030AE040800B9
:1008640097302000CD000330CE006530CF0000303B
:0E087400D000F03021009E009D011D140800F0
:100882002000FB017308031D77080319972C7208D7
:100892007606FA007708F3077E30031C542CF30225
:1008A20003189A2C572CF302031C9D2C7208F80093
:1008B2007108FC007008FD00F817F6170310F2012A
:1008C200F101F0011830A1007D1C712C7408F007B1
:1008D20075080318750FF10776080318760FF207EB
:1008E200F20CF10CF00CF80CFC0CFD0C0310A10B3B
:1008F200652CF21B812CF80DF00DF10DF20DF303B6
:100902007B1B701C932CF81F932CF00A0319F10A1D
:100912000319F20A031D932CF20CF10CF00CF30AEA
:1009220003199A2CFA1FF21300309F2C0130B720C2
:100932009F2C023018239F2C0430FA21000008005B
:100942002000650823009100920120006608230020
:1009520093001513951315150B08F0008B135530E2
:100962009600AA3096009514F01BB92C8B13BA2C62
:0C0972008B171511951CBE2CBB2C080027
:10097E002000FA017308031D7A147708031DFA1478
:10098E007A0803190A2D033A0319D52C7A18D22C9A
:10099E00F61F082D062DF21F062D082D7208803920
:1009AE00FA00F21376088039F6137A060319E32C4F
:1009BE007A080319062D082D770873020319EA2CFD
:1009CE00031CFE2C022D760872020319F12C031C57
:1009DE00FE2C022D750871020319F82C031CFE2C37
:1009EE00022D7408700203190A2D0318022DFA083D
:1009FE000319082D062DFA080319062D082D0314C8
:0E0A0E00080003100800031403150800080078
:100A1C007408003A031D272D7508003A031D272D75
:100A2C007608003A031D272D7708003A031D272D61
:100A3C00FF30F000FF30F1007F30F200FF30F300A8
:100A4C00C12D200077080319B52D73080319B82D93
:100A5C00720876068039FA00F217F617A1017208AF
:100A6C00F8007108FC007008FD007408FD027508A0
:100A7C00031C750FFC027608031C760FF802F801B4
:100A8C00FC01FD01031C512D0310F20CF10CF00CB8
:100A9C00F80C0130A1007708F302031C5B2D7E30AB
:100AAC002107F3070318BB2D602D7E302107F307B8
:100ABC00031CBE2D1830FA07FD0DFC0DF80DF00DC2
:100ACC00F10DF20DA10D7408F0027508031C750FE1
:100ADC00F1027608031C760FF202760DA104211C9C
:100AEC00792D7D14842D7408F00775080318750F83
:100AFC00F10776080318760AF2077D10FA031F3007
:100B0C007A05031D622D7B1B7D1CAB2D0310F00D94
:100B1C00F10DF20DA10D7408F0027508031C750F90
:100B2C00F1027608031C760FF202760D21040139CE
:100B3C00FD070318FC0A0319F80A031DAB2DF80C6A
:100B4C00FC0CFD0CF30A0319BB2DFA1FF8137808E3
:100B5C00F2007C08F1007D08F0000030C02D01305F
:100B6C001523C02D0230B720C02D04301823C02D02
:080B7C000830FA210000080016
:100B840020001708F100F00116087004F500710840
:100B9400F6000030F6043208F3003108F200F001E8
:100BA400F1017508F0077608F13D0030F23DF33DA0
:020BB400080037
:100BB60020007008F8007108F000F101F201F3015D
:100BC600FB01FC019630F300FA017008F100780889
:0A0BD600F000F801F2012A230800E4
:100BE000003020006606031DF72D01306506031D49
:100BF000FC2D670825009100003020006606031DCB
:100C0000032E02306506031D082E67082500980094
:020C10000800DA
:100C1200003020006606031D102E01306506031DFC
:100C22002F2E250016109610003020006806031D96
:100C32001C2E01306706031D222E0C1225001614ED
:100C42002E2E003020006806031D292E0230670672
:100C5200031D2E2E8C1225009614542E00302000D7
:100C62006606031D362E02306506031D542E25002E
:100C72001D109D10003020006806031D422E013019
:100C82006706031D482E0E1225001D14542E003037
:100C920020006806031D4F2E02306706031D542EE6
:080CA2008E1225009D140800CC
:100CAA00C2257008F4007108F5007208F60073088E
:100CBA00F7003D08F4023E08F53B3F08F63B4008C2
:100CCA00F73B7708003C031D742E76081E3C031D73
:100CDA00742E7508843C031D742E7408803C031C12
:100CEA00992EC2257008F4007108F5007208F60002
:100CFA007308F7003908F4023A08F53B3B08F63B5B
:100D0A003C08F73B7708003C031D952E76081E3CED
:100D1A00031D952E7508843C031D952E7408803C8E
:100D2A00031C992EF0019B2E0130F0000030F100D7
:020D3A000800AF
:100D3C00FA30F400F50120005708F0005808F100D3
:100D4C0047227008D7007108D800D901DA01580879
:100D5C005A02031DB32E570859020318D32E8E17AF
:100D6C000330FB000830FC007730FD00FD0BBC2E7F
:100D7C00FC0BBC2EFB0BBC2E8E130330FB0008307F
:100D8C00FC007730FD00FD0BC92EFC0BC92EFB0BB4
:0C0D9C00C92ED90A0319DA0AAD2E08008E
:100DA8000A302000E500972370082000D50071085C
:100DB800D600DB250030F4000030F5002030F600C6
:100DC8008130F70041240030F400C030F5007F3056
:100DD800F6008830F7000E257008C1007108C200BF
:100DE8007208C3007308C4006630F4006630F5006A
:100DF8003630F6008030F700BF2401300318003089
:080E0800F0000030F1000800C9
:100E100020009C01FF309B0025009E101E10161420
:100E20009614161196111616FF3091009E111E1180
:100E30001D149D141D119D111D16FF3098003C308E
:0A0E40009A00043020009C00080016
:100E4A002000981218169813181318142100111458
:080E5A00200096019701080039
:100E620012001E00F003031D312FF103031D312F69
:020E7200080076
:100E74002200910193019E141E1423008C01103052
:100E84008D008E0132240C148C140C118C150C1250
:100E94008C120D168D120D178D130E148E140E1147
:100EA4008E150E128E120E178E138B170B1712142B
:100EB4009316053025009A00053026009A00080094
:100EC4006C302000A9000730AA004C30AB0004307D
:100ED400AC006C30AD000730AE004C30AF000430D5
:100EE400B000B101B201F2302100990032243A2756
:100EF400082725270430FB000C30FC003330FD00AC
:100F0400FD0B822FFC0B822FFB0B822F00000000B5
:100F14008C198F2F88316721803120008E1355263C
:100F2400700871040319A72F8E170130E5000030F3
:100F3400E600E701E801F02502302000E50000307A
:100F4400E600E701E801F025912FD426700871042A
:100F54000319B12F4030D7000630D8009E268831BF
:080F6400002080318F2FB52F12
:1010000020004908DB004A08DC004B08DD004C08E2
:10101000DE0045082100A000200046082100A100B4
:10102000200047082100A200200048082100A3005A
:1010300020002F082100A400200030082100A50076
:10104000A601A701200029082100A80020002A08E5
:101050002100A900AA01AB010130AC00FF30AD00B6
:10106000FF30AE00AF00FF30B000B101B201B301FC
:1010700080315923883170082000D7007108D800CA
:101080005B082100A00020005C082100A1002000D6
:101090005D082100A20020005E082100A3002000BE
:1010A0002B082100A40020002C082100A500A60187
:1010B000A70120002D082100A80020002E082100F3
:1010C000A900AA01AB010130AC00FF30AD00FF3038
:1010D000AE00AF00FF30B000B101B201B30180310A
:1010E0005923883170082000D9007108DA00803057
:1010F0005806F0008030FF3A7002031D812801304D
:101100005702031887280130D700FF30D8008030FD
:10111000F000803058067002031D90285708FF3CED
:1011200003189528FF30D700D80180305A06F00008
:101130008030FF3A7002031D9F28013059020318C6
:10114000A5280130D900FF30DA008030F00080306F
:101150005A067002031DAE285908FF3C0318B32835
:10116000FF30D900DA0180305806F0008030003AB4
:101170007002031DBD28323057020318CD2880307D
:10118000FF3AF000803058067002031DC928570846
:10119000CE3C0318CD28D701D80180305A06F00084
:1011A0008030003A7002031DD728323059020318EC
:1011B000E7288030FF3AF00080305A067002031DA5
:1011C000E3285908CE3C0318E728D901DA0180301A
:1011D0005806F00080307002031DF02800305702DE
:1011E000031C0A290130E5000030E6000230E70068
:1011F0000030E80080310926883101302000E50008
:101200000030E6005708E7005808E8008031F02574
:101210008831262901302000E5000030E600013049
:10122000E7000030E80080310926883101302000D5
:10123000E5000030E6005708003CE7005808031CB2
:10124000013EE801E8028031F0258831803020003D
:101250005A06F00080307002031D30290030590218
:10126000031C4A290230E5000030E6000230E700A6
:101270000030E80080310926883102302000E50086
:101280000030E6005908E7005A08E8008031F025F0
:101290008831662902302000E5000030E600013088
:1012A000E7000030E8008031092688310230200054
:1012B000E5000030E6005908003CE7005A08031C2E
:0E12C000013EE801E8028031F0258831080087
:1012CE0020302000DB004E30DC002030DD004E30C0
:1012DE00DE00D701D801D901DA018031C22588316B
:1012EE007008E1007108E2007208E3007308E40080
:1012FE008D178031C22588317008F4007108F50011
:10130E007208F6007308F7006108F4026208F53BF4
:10131E006308F63B6408F73B00307702031DA129F2
:10132E001E307602031DA12984307502031DA129EA
:10133E00803074020318C4294508DF004608E00017
:10134E005C084602031DAD295B0845020318B3294C
:10135E005F08DB006008DC004908DF004A08E00097
:10136E005E084A02031DBD295D0849020318C32900
:10137E005F08DD006008DE008029FF305B05F300AA
:10138E007308B8005C08F000F101FF307005B7007B
:10139E00E5017308E6008031A12488311A30FC0083
:1013AE00F830FD00FD0BD929FC0BD92900000130C6
:1013BE002000E5003708E6008031A12488311A307C
:1013CE00FC00F830FD00FD0BEA29FC0BEA290000B9
:1013DE00FF3020005D05F3007308B8005E08F000D2
:1013EE00F101FF307005B7000230E5007308E6002A
:1013FE008031A12488311A30FC00F830FD00FD0B3D
:10140E00062AFC0B062A000003302000E5003708F0
:10141E00E6008031A12488311A30FC00F830FD003E
:10142E00FD0B172AFC0B172A000040302000E500A8
:10143E000630E6008031AF2388318031C2258831F5
:10144E007008E1007108E2007208E3007308E4001E
:10145E008D178031C22588317008F4007108F500AF
:10146E007208F6007308F7006108F4026208F53B93
:10147E006308F63B6408F73B00307702031D512AE0
:10148E001E307602031D512A84307502031D512A27
:10149E00803074020318752A20004508DF004608C4
:1014AE00E00046085802031D5E2A4508570203183D
:1014BE00642A5F08D7006008D8004908DF004A0890
:1014CE00E0004A085A02031D6E2A49085902031801
:1014DE00742A5F08D9006008DA00302A2000FF3035
:1014EE005705F3007308B8005808F000F101FF30FB
:1014FE007005B7000430E5007308E6008031A124C2
:10150E0088311A30FC00F830FD00FD0B8C2AFC0BE4
:10151E008C2A000005302000E5003708E6008031F7
:10152E00A12488311A30FC00F830FD00FD0B9D2AF5
:10153E00FC0B9D2A0000FF3020005905F3007308B4
:10154E00B8005A08F000F101FF307005B700063000
:10155E00E5007308E6008031A12488311A30FC00C2
:10156E00F830FD00FD0BB92AFC0BB92A000007303C
:10157E002000E5003708E6008031A12488311A30BA
:10158E00FC00F830FD00FD0BCA2AFC0BCA2A000035
:10159E0040302000E5000630E6008031AF23883170
:0A15AE008D138031E5238831080019
:020000040001F9
:04000E00E23F1316A4
:00000001FF
